:1000000000000220F1F5020019F602001BF60200C2
:100010001DF602001FF6020021F60200000000009B
:10002000000000000000000000000000918C0200B1
:1000300025F6020000000000B18C020029F6020043
:10004000FDF902002BF6020081AE020041D105004D
:100050002BF602002BF60200F59802002BF60200A8
:100060001DA0020075A00200CDA00200819D02002B
:100070002BF602002BF602002BF602002BF60200F4
:1000800069AC0200518802002BF602002BF6020038
:100090002BF602002BF602002BF602002BF60200D4
:1000A0002BF602002BF602002BF6020025A102001F
:1000B0002BF602002BF602000000000000000000FA
:1000C0002BF602002BF602002BF60200B9D0050039
:1000D0002BF602002BF602002BF60200B1BE020046
:1000E0002BF60200000000000000000000000000ED
:1000F000000000002BF602000000000021D00500E7
:1001000000000000000000000000000000000000EF
:1001100000000000000000000000000000000000DF
:1001200000000000000000000000000000000000CF
:1001300000000000000000000000000000000000BF
:020000021000EC
:10000000EFBEADDE000000000000000000000000B8
:1000100000000000000000000000000000000000E0
:1000200000000000000000000000000000000000D0
:1000300000000000000000000000000000000000C0
:1000400000000000000000000000000000000000B0
:10100000A880060002000000DD3601006D370100F7
:10101000DD3B010095340100000000002D2E010091
:101020009932010010B5054C237833B9044B13B144
:101030000448AFF300800123237010BD7008002026
:10104000000000002C16070008B5034B1BB1034934
:101050000348AFF3008008BD0000000074080020C2
:101060002C160700A3F5803A704700BF174B002BE2
:1010700008BF134B9D46FFF7F5FF00218B460F4637
:101080001348144A121A11F059F90E4B002B00D0D4
:1010900098470D4B002B00D09847002000210400FA
:1010A0000D000D48002802D00C48AFF3008011F06D
:1010B000C1F82000290000F013F811F095F800BFE6
:1010C00000000800000000000000000000000220F6
:1010D00070080020F8D90120000000000000000086
:1010E00008B500F01DF802F00DF902F0EFF801204C
:1010F00001F0B6FE00F042F801F05AFF01F0E8FE00
:10110000054802F0D7F802F0CFF8034600209B68AC
:10111000984701F085FEFEE70010010030BF7047E0
:1011200000B583B000F042F8032017F029FE4FF01D
:10113000A0430C22C3F83C2718F062F880B119F0E4
:1011400037FE0B4B1B6898470A4B1B6898470A4BA6
:101150001B6801934EF6602003B05DF804EB18475E
:1011600018F054F80028EAD017F0B4FFE7E700BF02
:10117000AC7B0600907B0600707B060008B5094B2F
:1011800009481B68984701F065FE20B9BDE8084092
:10119000002000F0B3BB00F0C1F8BDE8084000201B
:1011A00000F0ACBBF87B0600BD3101004FF080536E
:1011B000D3F830210D2A08D0FF224FF01023D3F8A6
:1011C0000832DBB293420DD17047D3F83431022B91
:1011D00001D95A22F1E7174AD35C002B0CBFFF223A
:1011E0005A22EAE7144B012110B4C3F80415D3F8CE
:1011F00000140029FBD04FF010200024D0F8081272
:1012000021F0FF010A430C49C0F80822C3F8044545
:10121000D1F80034002BFBD0BFF34F8F0749084BA8
:10122000CA6802F4E0621343CB60BFF34F8F00BF84
:10123000FDE700BF607B060000E0014000ED00E03C
:101240000400FA05024A136801331360704700BFB7
:1012500090080020014B187819F07CBD8C08002004
:1012600010B5114B044693E8070084B001AB83E846
:1012700007000E490294184619F00CFD38B90C48C5
:1012800019F042FD50B919F031FD04B010BD17F04E
:1012900021FF074819F038FD0028F4D017F01AFF95
:1012A00019F024FD04B010BD647B06004512010056
:1012B0008C080020F0B50478631E012B83B01ED982
:1012C0000CB103B0F0BD134F3B680DF107001E8851
:1012D0005D8817F087FE104B1A78BAB9731CED1AA7
:1012E000C5F30A053DB13A689DF807101644C3F3EB
:1012F0000A033171138001F02FFE03B0F0BD3721D6
:10130000002003B0BDE8F04000F0E4B91C7003B069
:10131000F0BD00BF000000209810002010B50D4C5B
:101320000FCC8AB00DF1100CACE80F0094E803006C
:101330008CE803000848094B00934FF40064CDE9A2
:101340000140074A03940623694604A817F0D6FD16
:101350000AB010BD787B06009C1800209C1000206D
:10136000B512010079B138B50446451801E0AC4228
:1013700007D014F8010B17F061FE0028F7D01B20EE
:1013800038BD002038BD0020704700BF014B1B68EE
:10139000036070479C200020054B1B68984288BF63
:1013A00003F1FF33181A884234BF00200120704730
:1013B0009C20002010B5114B114A124884B0002423
:1013C00002A9CDE9023418F033FD044698B90E4A5B
:1013D0000C48D2F8102501234FF47A51D2B221FAE9
:1013E00002F20093002118F0EDFD064818F0C2FD4E
:1013F000204604B010BD17F06DFEE8E707000007B7
:101400000D1401009C7B060000A00040B0F5A07FF9
:1014100003D1024A13680133136070479C200020F7
:10142000034B044A1B68D3F80413C3F8082370471E
:101430000400002003000F00034B1B684FF48032B0
:10144000C3F80423704700BF04000020024BA02211
:1014500083F80B23704700BF00E100E0024B1B68DC
:10146000D3F80405704700BF04000020081A48BFE5
:1014700000F18070704700BF014B1860704700BFDB
:10148000A82000209FED010A704700BF286BEE46A0
:10149000704700BF0F4BF0B41B680F4ED3F80435F4
:1014A0003568B5EBD33F4FEAD3340DD80B4D2D68DB
:1014B000346004EB45240460C3F30E034FF4004092
:1014C0000B60F0BC10607047044F3D6801353D6013
:1014D000EEE700BF04000020A4200020A020002090
:1014E000144BF0B41D686423D5F8046502E013F0D2
:1014F000FF0305D0D5F80445A64203F1FF33F6D02B
:101500000D4E3568B5EBD43F4FEAD4330DD80B4DB3
:101510002D68336003EB45230360C4F30E044FF4DE
:1015200000430C60F0BC13607047044F3D68013508
:101530003D60EEE704000020A4200020A020002051
:1015400008B5054818F0C2FB034818F089FB034BA7
:1015500000221A6008BD00BF04000020A82000205F
:10156000054B1B6802461A440448012322F07F42BF
:10157000002118F0B7BB00BF0C00002004000020C1
:1015800010B50A4B0A4C0B4A93E8030082B00023C3
:101590000090ADF8041008482360694618F018FB65
:1015A00010B9054818F086FB02B010BDA47B0600F8
:1015B000A8200020BD1501000400002018B9024B2E
:1015C0001B6803B118477047A820002007EE900A57
:1015D000DFED1A6A1A4BB8EE677A70B5C7EE267A55
:1015E00093E8030082B0174C174E00902046ADF8E8
:1015F0000410FCEEE77AC6ED007A18F067FB20468F
:1016000018F02EFB114A6946204618F0E1FA90B90D
:101610000546204618F0ACFB23683168D3F8042552
:101620000A44012322F07F422946204618F05AFB43
:10163000204618F03FFB02B070BD00BF286BEE469D
:10164000A47B0600040000200C000020BD15010052
:1016500007EE900ADFED1A6A1A4BB8EE677A70B59A
:10166000C7EE267A93E8030082B0174C174E00901D
:101670002046ADF80410FCEEE77AC6ED007A18F0CB
:1016800025FB204618F0ECFA114A6946204618F06E
:101690009FFA90B90546204618F06AFB2368316826
:1016A000D3F804250A44012322F07F42294620462C
:1016B00018F018FB204618F0FDFA02B070BD00BF0C
:1016C0000000FA3CA47B0600040000200C0000206F
:1016D000BD1501002DE9F84F1B4B197088B31B4D48
:1016E000DFF86CA08B4645F001054FF0A048BBF138
:1016F000000F25D0D946102703269AF8000019F0CC
:1017000029FB6424C8F80C754FF47A40A847013CC3
:10171000FAD1C8F8087564244FF47A40A847013C10
:10172000FAD1013EE9D14FF47A744FF47A40A847D8
:10173000013CFAD1B9F10109DED1BBF1000FD9D1D9
:10174000FEE7BDE8F88F00BFAC200020F07B06006C
:101750008C080020024B187880F00100704700BF11
:101760007C210020704700BF08B58646064B07481D
:101770000A464FF0010C714683F800C01DF0C2FE0E
:10178000B0FA80F0400908BD7C210020107C0600E2
:1017900008B5124B18601CF03DFE114B1148002299
:1017A0001A701BF04DFC38B90F481BF01DFD50B9E5
:1017B0001BF0DCFC68B908BD17F08CFC0A481BF074
:1017C00013FD0028F4D017F085FC1BF0CFFC002897
:1017D000F1D0BDE8084017F07DBC00BF78210020A3
:1017E0007C210020347C0600107C060010B5032903
:1017F0001BD8DFE801F01B170A02144B0022BDE8DA
:10180000104001201A7017F095BA104B00220120E9
:101810001A7017F07DFABDE810400D490D484022BE
:101820001DF09ABE094B00221A7010BD1DF090FEEB
:1018300007490446402207481DF08EFE064B044827
:101840001B682146BDE81040184700BF7C210020DE
:1018500038210020107C060078210020023808B5CD
:101860000D280CD8DFE800F00C110B0B0B0B162128
:10187000280B0B0B2C071CF0C7FD052826D008BD34
:10188000BDE80840002017F055BABDE80840002028
:1018900017F03EBA1AF0AEFE0028F0D117F04EFD58
:1018A000C8B9BDE808401BF079BC1BF08FFCBDE84F
:1018B0000840002017F0FABCBDE808401BF072BCDD
:1018C0001BF06EFCBDE8084017F046BABDE80840C2
:1018D000032001F079BD17F017FD17F02FFD002848
:1018E000FBD1DEE7044AD2E90031013B41F10001BE
:1018F000C2E90031704700BF8021002008B50023F5
:101900000D4A0E49184600F067F80D4A106030B1D4
:1019100001224FF0FF3100F061F930B908BD094BE9
:10192000094A0A482A2110F041FC094B064A074897
:101930002D2110F03BFC00BFE5180100C07C060023
:1019400088210020407C0600A87C06004C7C060014
:10195000A07C060000B5084B83B001A9186800F010
:1019600077F9064A0198D2E90031C01841F1000127
:1019700003B05DF804FB00BF882100208021002017
:1019800070B5104C84B005460E46206803A900F0DF
:101990005FF9206802A900F05BF9029A039B9A4262
:1019A000F7D0094A0299136852685B1842F10002A5
:1019B0002B606A602BF048FD0190019B336004B0FE
:1019C00070BD00BF88210020802100200B690BB171
:1019D00048691847704700BF2DE9F04F894685B028
:1019E000002938D06C4C267B0546924616B3227AE5
:1019F000824200F0CC8094F82420002A00F0C180BC
:101A000094F82020824200F0BC8094F83C20002A08
:101A100000F0B98094F83820824200F0B48094F845
:101A20005420002A00F0B58094F8506086420CBF24
:101A300003260426042D04D8DFE805F076839003FE
:101A400013005648564B5749C01AC008000440F0CE
:101A5000020000F0EFFA4FF0000B584605B0BDE869
:101A6000F08F06EB460204EBC2014F4844F8320007
:101A700040F203628A804FEA460808EB060704EB4F
:101A8000C70701223A733846019318F045FAD9F88E
:101A900000104648019B8142BB464FF001026AD2CA
:101AA000434881420DD2434A914266D8424A91420C
:101AB00065D8424A914268D8414A914294BF09226E
:101AC00008228DF8082099F805200397032A4FF083
:101AD00000018DF8091098BF3A49464494BF8A5CCA
:101AE000032204EBC6048DF80A2099F804208DF82F
:101AF0000B20C4F810A0344A63613846257202A94D
:101B000018F096F90028A8D0254B24482F49C01A70
:101B1000C0084FF0000B00042A4640F0020084F891
:101B20000CB000F027FA98E706EB460204EBC2017E
:101B3000274844F832004FF480628A804FEA460812
:101B40009BE706EB460204EBC201224844F8320050
:101B500040F201428A804FEA46088EE706EB4602D1
:101B600004EBC2011C4844F8320040F202428A8071
:101B70004FEA460881E70022A3E70222A1E70322F9
:101B80009FE7012656E7022654E7042299E700263C
:101B900050E703264EE700BF8C2100208016070087
:101BA00030160700C87C060000B001400024F40095
:101BB00000127A00FF083D007F841E003F420F00A4
:101BC00067890900347D0600CD190100087D0600F3
:101BD000008000400090004000A0004050B310B5CD
:101BE000044682B001B30368002AD3F81025D2B2AC
:101BF0004FEA117CC2F120034FEA011121FA02F1F0
:101C00000CFA03F3A2F1200241EA03012CFA02F2DA
:101C100042EA01024FF0010140F20113009118BFA6
:101C20000B46002118F0CEF9204618F0A3F9002049
:101C300002B010BD6FF00A00704700BF20B108B5B8
:101C400018F0A6F9002008BD6FF00A00704700BF29
:101C500058B110B50C4629B1012118F0A7F9206040
:101C6000002010BD6FF00A0010BD6FF00A00704731
:101C700038B5A0B10B4D0446002308462B7000F088
:101C8000E1FB0948C5F80C4800F0F2FB044608B136
:101C9000204638BD054800F02DFD204638BD0724FC
:101CA000204638BD68260020B8160700507D060083
:101CB00030B499B10D490E4D491BC90813D00D4CD4
:101CC000002302E0013399420AD034F823208242F3
:101CD000F8D1184655F8300030BC7047044DF9E78C
:101CE000002030BC70470846F6E700BFA816070082
:101CF00030160700F8D90120094B013903EBC00069
:101D000003290BD8DFE801F004020806042070471D
:101D10000220704740797047007970470020704773
:101D200030160700704700BF2DE9F0438B4DD5E911
:101D300001239A4285B066D00023C5F81838BFF356
:101D40004F8FAC68C4F30803D91C05EB810215F86A
:101D5000211048071AD56E68137803F00303012B8E
:101D60004BD0022B03D15388033404EB9314C4F3F8
:101D70000803D5F81808D91C05EB810230B9A64232
:101D800040F2E98015F821104907E5D405EB8301FD
:101D9000621CA31CC2F30802C3F30803C9680191C3
:101DA00005EB820205EB8303D268DB6801F00301D7
:101DB0000229CDE9022304F103067DD0012926D0B2
:101DC000D5F810483CB1236820469B689847E368E3
:101DD0001C68002CF7D1624B62486349C01AC008E6
:101DE000000440F0020000F025F9AE686868801B2E
:101DF00018BF012005B0BDE8F08313880334C3F396
:101E000083131C44B3E7002005B0BDE8F083BDF8A0
:101E100004205648C2F38313062B28BF062363F31E
:101E20008912033303F00F018900ADF8042000F09C
:101E300021FB07460028C3D000F066FB00230C22DC
:101E400001A9384600F090FBBDF8043013F4707F10
:101E50001AD06FF002094FF00C08A9EB0409C6F381
:101E6000080103314346042205EB8101384600F0A6
:101E70007BFBBDF804300136C3F3831309EB060284
:101E8000934208F10408EAD8D5F810485CB1E36839
:101E90005A79204639465AB123681B689847E36847
:101EA0001C68002CF3D1384600F032FBAE609DE791
:101EB0001C68002CEBD1F6E7BDF806302B48C3F3C5
:101EC0008918B8F5FA7F444628BF4FF4FA7404F134
:101ED0000C0164F38F13C1F30901ADF8063000F073
:101EE000C9FA074600283FF46BAF00F00DFB002352
:101EF00001A90C22384600F037FBF343C3F3080373
:101F00000133B4EB830F4FEA830119D95FFA81F9EA
:101F1000641AC6F30801033105EB81014A463846CD
:101F20000C23E4B200F020FB114909F10C03224616
:101F3000384600F019FB08F1030806EB9806A3E702
:101F4000C6F308010331224605EB81010C23384614
:101F500000F00AFBEFE7AE604CE700BF6826002008
:101F60003016070080160700387D0600B8160700F7
:101F7000742600202DE9F8432D4F044600200E461C
:101F8000914617F095F8D7E9015303F500735B1BF1
:101F9000032B43D9C5F3080808F10308452347F884
:101FA000283000202B1D7B6017F08AF8EB1CC3F350
:101FB000080307EB83030021C3F80C9007F61C000D
:101FC00017F0CEF880F310036A1CC2F3080207EB87
:101FD00082021B0443EA1443D3600235D7F80C385D
:101FE000E4009847C5F3080504F0380407EB8505BD
:101FF00044F0410444EA8626E86047F828603B78CC
:102000001BB9FFF78FFEBDE8F883FFF78DFE0028B0
:10201000F7D0FFF789FE0028F7D1F2E7012107F694
:102020001C0017F0A7F8002017F04AF8E7E700BFF8
:10203000682600202DE9F041294F044600200E4675
:1020400017F036F8D7E9015303F500735B1B022B39
:102050003CD9C5F3080808F10308052347F82830E0
:102060000020EB1C7B6017F02BF8002107F61C000A
:1020700017F076F880F310036A1CC2F3080207EB2E
:1020800082021B0443EA1443D3600235D7F80C38AC
:10209000E4009847C5F3080504F0380407EB85050C
:1020A00044F0010444EA8626E86047F828603B785B
:1020B0001BB9FFF737FEBDE8F081FFF735FE0028BA
:1020C000F7D0FFF731FE0028F7D1F2E7012107F63C
:1020D0001C0017F04FF8002016F0F2FFE7E700BFF2
:1020E0006826002030B4124DD5F8101804460020A0
:1020F000B1B10B4601E01B6853B1DB681A7982422B
:10210000F9D101300A28F3D14FF0FF3030BC7047CD
:10211000E2681071CB68196811601C6030BC7047B0
:10212000E3681871C5F8104830BC1960704700BFEB
:102130006826002038B5084BD3F8104801251D70DB
:102140004CB12368E2685B68557120469847E368A4
:102150001C68002CF5D138BD6826002070B5C388F6
:1021600086B005460E46002B53D1297A05294ED05C
:102170006B7A002B40D12B4A2B6812682A49B3FB9B
:10218000F2FC2A4A0968BCFBF1F4A2FB0432D00A33
:102190004FF4616E264B02460EFB104001FB14CC3F
:1021A000A3FB00435B094FF47A7EC3EB03140EFBE1
:1021B0000CFCA0EB84000090BCFBF1F001FB10C410
:1021C0000EFB04F40190B4FBF1F43046194902947B
:1021D00000F0A6FA2A7A184BA88853F82220059214
:1021E0000021FFF765FD059A14490346304606B005
:1021F000BDE8704000F094BAA888FFF77DFD104B51
:10220000104953F82020304600F08AFAB3E706B0B0
:1022100070BD0D4900910D4A0D49304600F080FA1D
:10222000A3E700BFA4300020A0300020C5B3A291D6
:1022300089888888887D0600347E0600A47D060093
:10224000107E0600847D06007C7D06005C7D060015
:10225000647D06002DE9F04385B01D460C9C0023EB
:1022600094F80C90237380460E4617462146284664
:10227000FFF774FF062F09D8DFE807F0042E343B80
:10228000444F1F004146204600F04AFA2B7A052BA6
:1022900005D06B7A5BB92749204600F041FA204609
:1022A00000F032FA84F80C9005B0BDE8F083224AC1
:1022B0002249204600F034FAEDE77369039333694D
:1022C0000293F3680193B3680093D6E90023414673
:1022D000204600F025FAD9E732684146204600F052
:1022E0001FFAD3E7D6E900234146204600F018FA4A
:1022F000CCE7B3680093D6E900234146204600F0BE
:102300000FFAC3E7F3680193B3680093D6E900239B
:102310004146204600F004FAB8E733690293F368B7
:102320000193B3680093D6E900234146204600F0AC
:10233000F7F9ABE7B07D06007C7D0600847D0600E2
:10234000082900D970472DE9F04F1D4683B00024BD
:102350001B7B2C730E460746294610469046019378
:10236000DFF8D0B0DFF8D0A0FFF7F8FE05E03A5D67
:10237000013400F0D5F9082C09D0A6425146284670
:10238000F5D85946013400F0CBF9082CF5D1244991
:10239000DFF8A8B0234CDFF8A8A0284600F0C0F969
:1023A0004FF0000917E017F80910481C7E294FF07C
:1023B0002E02C0B206D810F80A2012F0970F14BFF0
:1023C0000A462E222146284609F1010900F0A8F903
:1023D000B9F1080F0AD04E45E5D85946284609F10B
:1023E000010900F09DF9B9F1080FF4D198F808300F
:1023F000052B02D098F809305BB90B49284600F04C
:102400008FF9284600F080F9019B2B7303B0BDE8DB
:10241000F08F064A0649284600F082F9EDE700BF32
:10242000C07D0600C47D0600B07D06007C7D0600F0
:10243000847D0600BC7D0600B47D0600AC7D0600F0
:10244000468A0600074A0849012390420B6005D9D5
:10245000400890424FEA4303FAD80B60034B1860E0
:10246000704700BF40420F00A4300020A030002081
:1024700000F0E2B82DE9F041058A0331043D4E1920
:102480008046B6FBF5F600F0FBF8A0B3F6B24FF4C9
:102490008073013E04468380C580C0F800802BD045
:1024A0000346002508E06279AE4202F10102627142
:1024B0003860C0F800801FD040461F4600F0E0F8AA
:1024C000013503460028EED16779791E17D02246E0
:1024D000013399421268FBD1D2F800805FB12668BF
:1024E000002501E03446366821464046013500F0BB
:1024F000EBF8AF42F6D800242046BDE8F081206812
:10250000214600F0E1F8F6E70121043016F032BE72
:102510002DE9F04101210446043016F037FE10F099
:10252000FF0301D0BDE8F0816779791E16D02246FD
:10253000013399421268FBD1D2F80080002FF1D00C
:102540002668002501E034463668214640460135BC
:1025500000F0BAF8AF42F6D8BDE8F0812068214615
:10256000BDE8F04100F0B0B82DE9F843C7888846CF
:10257000417907FB01F1043902EB030C1E1D614593
:10258000154638BFCD1AB7420446B6FBF7F207FB33
:10259000126002D8013A2468FCD13E1AAE4228BF2C
:1025A0002E469DB14FF000090430AD1B324608EBBA
:1025B000090120440FF0B4FEAF42B14424683E4606
:1025C0004FF0000028BF2E46002DEDD1BDE8F88366
:1025D0002DE9F843C7880446407907FB00F004382A
:1025E00002EB030C1E1D6045154638BFC51AB742E5
:1025F0008846B6FBF7F107FB116202D8013924685F
:10260000FCD1BE1AAE4228BF2E469DB14FF0000944
:10261000111DAD1B3246214408EB09000FF080FE6E
:10262000AF42B14424683E464FF0000228BF2E4618
:10263000002DEDD1BDE8F883F8B130B4D0E9014305
:102640001B1B0268DBB2591E1460C9B28BB1023B7E
:10265000651C1560DBB2217051B101680A6803F195
:10266000FF3C541C0C6013705FFA8CF3FF2BF4D109
:1026700002680020107130BC70470E20704700BF08
:1026800010B50446002016F013FDD4E900231168AC
:10269000994213D9481EA368106011F801CC117932
:1026A0001B1ADBB2208AE468994200FB0C4400D27A
:1026B0001371002016F004FD204610BD00240020F8
:1026C00016F0FEFC204610BD38B5054600200C462D
:1026D00016F0EEFC2A681368591C1160E9682A8A12
:1026E000641AB4FBF2F41C70BDE83840002016F008
:1026F000E7BC00BF836800225A60C3E904229A60E5
:10270000DA601A60704700BF826842B110B5436951
:1027100001680446006998470023A36010BD704714
:102720000EB400B582B0039921B104AB01AA0193A4
:1027300000F0B6F802B05DF804EB03B0704700BFDC
:102740002DE9F04F154683B0A942DDF830900D9A7F
:102750000F4606469A46C0F09E800B464FF0010891
:10276000B3FBF5F39D4208F10108F9D9D04538BF14
:10277000D04612F00103019302D1B9F1000F67D1E5
:10278000B268BAF1010F4FF0010406D90AF1FF3A1D
:10279000BAF1010F05FB04F4F8D8B7FBF4F39D423E
:1027A00005D805FB04F4B7FBF4F39D42F9D9DFF833
:1027B000ECA007E0AC42B4FBF5F31AD3B2681C46B8
:1027C000B7FBF3F31AF803B0BBF10A0F04FB13775E
:1027D00028D03368511CB16003F802B0D6E9013249
:1027E0009A42E7D33046FFF78FFFB4FBF5F3AC42D4
:1027F000E4D2019B9BB1B9F1000F10D02024C84551
:1028000009F1FF390BD2B3683268591CB160D45456
:10281000D6E901329A4214D2B9F1000FEFD103B0D8
:10282000BDE8F08F511C3368B1604FF00D01995431
:10283000D6E901329A42CCD33046FFF765FFB26841
:10284000C7E73046FFF760FFB9F1000FD7D1E6E7E1
:1028500093071AD42024B268C84502F1010190D22E
:102860003368B1609C54D6E901329A4209F1FF39CC
:1028700003D2B9F1000FEFD183E73046FFF744FFF1
:10288000B268B9F1000FE7D17BE7BAF1000F0CBFD6
:1028900030242024DFE74FF0010867E7487E060078
:1028A000002900F036822DE9F04FDFF86C950D78A5
:1028B00085B0064690460C464FF00D0A0FE00A2DF3
:1028C000B36800F08E803268591CB160D554D6E9E7
:1028D0000130984280F081802578002D69D0013444
:1028E000002D66D0252DEAD10027234614F8012BB0
:1028F0002D2A6CD0302A6DD02B2A61D02A2A7FD085
:10290000A2F1300109294FF000050BD805EB850530
:1029100002EB450513F8012FA2F130010929A5F1B9
:102920003005F3D92E2A1C4675D0002301E014F897
:10293000012F02F0FB016829F9D0252A00F05F8100
:10294000583AD1B2202930D8202A2ED8DFE812F008
:1029500021002D002D002D002D002D002D002D001B
:102960002D002D002D00FE0079002D002D002D00E2
:102970002D0079002D002D002D002D002D002D00A3
:10298000BD002D002D001A012D0016012D002D0077
:102990002100D8F80000102201680430CDE900576A
:1029A000C8F800003046FFF7CBFE01342578002D33
:1029B00095D1337B002B40F01C8105B0BDE8F08F32
:1029C000234614F8012B2D2A47F0040792D147F033
:1029D00001078AE747F0020787E73046FFF794FED2
:1029E0007AE73268591CB16002F803A0D6E90123E6
:1029F0009342FFF468AF3046FFF786FEB36862E7A4
:102A0000D8F80020111DC8F8001015685A782E2A31
:102A100003F1010489D16278A2F13003092B04F19A
:102A200001044FF0000384D803EB830302EB43035C
:102A300014F8012FA2F130010929A3F13003F3D9D1
:102A400077E7D8F80020D2F800B00432C8F80020A8
:102A50008BEAEB72A2EBEB72092A40F3D981DFF823
:102A6000BCC3012011466329ACFB02E200F1010066
:102A70004FEAD202F6DC9842024638BF1A4602926A
:102A8000002D00F0F780BBF1000FC0F207817A073C
:102A900000F10481B80740F10381002B40F0008170
:102AA000BBF1000FC0F27B817A0700F18B8107F048
:102AB0000302022A00F02E81CDE9005759460A226E
:102AC0003046FFF73DFE013470E7D8F80020B368C8
:102AD00017683168101D5A1CC8F80000B260302217
:102AE000CA54D6E90123934280F0D380591C32683E
:102AF000B1607821D154D6E901329A4280F0C48085
:102B00000F2F03D93B461B090F2BFCD84FF08055E4
:102B100006E00F2D4FEA15137FF647AFB2681D464A
:102B2000B7FBF5F319F803B0BBF10A0F05FB1377F8
:102B300051D03368511CB16003F802B0D6E90130BE
:102B40009842E6D33046FFF7DFFDE2E7D8F80030E1
:102B50001D7804330A2DC8F80030B36800F03881BE
:102B60003268591CB160D554D6E901309842FFF45F
:102B70001CAF3046FFF7C8FD013417E7D8F8000056
:102B80000A2209E7D8F800301A1DC8F8002017F00B
:102B90000107D3F800B03DD1BBF1000F03D0584678
:102BA00010F0A2F90746BD4240F2CC80202202E09C
:102BB000BD4200F0C780B1683368481CB0605A5409
:102BC000D6E90130984205F1FF35F1D33046FFF7E1
:102BD0009BFD2022ECE73368511CB16003F802A092
:102BE000D6E901329A42A4D33046FFF78DFDB26890
:102BF0009FE7304605B0BDE8F04FFFF785BDB368ED
:102C00003168581CB060CA54D6E901309842B0D23D
:102C10000134CBE69BF80030002B00F0FB80B0685D
:102C20005F46CBF101020A2B02EB070B5FD0411C80
:102C3000B16031680B54D6E90130984249D217F897
:102C4000013F002BEFD15D457FF6AFAE202702E0BC
:102C50005D453FF4AAAEB2683368511CB1609F5421
:102C6000D6E90130984205F1FF35F1D33046FFF740
:102C70004BFDEDE7B80705D5002B3FF411AFF90781
:102C80003FF50EAF00250BE73046FFF73DFDB2687C
:102C900036E73046FFF738FDB36827E7013DF9E630
:102CA000F9073FF5FDAE002DECD020220299A94294
:102CB000BFF4F6AEB168481CB06030684254D6E943
:102CC0000101814205F1FF3580F09180002DEDD1A9
:102CD000D8E730460292FFF717FD17F8013F002BA7
:102CE000B1D0029AB0680A2B02EB070B9FD1411CAE
:102CF000B160316801F800A0D6E90110884296D38E
:102D00003046CDE90232FFF7FFFCDDE90232B06860
:102D10008DE77047002B7FF4CFAE8DB13022029942
:102D20008D427FF6C9AEB168481CB060306842542D
:102D3000D6E90101814205F1FF3562D2002DEED1C5
:102D40000025B9E69BF80050002D3FF42EAE0A2D69
:102D5000B0680ED03368421CB2601D54D6E9013011
:102D6000984214D21BF8015F002D3FF41EAE0A2DCD
:102D7000F0D13368421CB26003F800A0D6E90130FC
:102D80009842E7D33046FFF7BFFCB068E2E7304631
:102D9000FFF7BAFC1BF8015F002DD8D105E6B1683A
:102DA0003268481CB060CBF1000B2D205054D6E99E
:102DB00001219142FFF47BAE30460393FFF7A4FC60
:102DC000039B74E6B1683268481CB0602B20EDE7C5
:102DD0003268591CB16002F803A0D6E9012393427E
:102DE000FFF4BEAE3046FFF78FFCB368B8E630465E
:102DF0000393FFF789FC039B2022002D7FF456AF3D
:102E000040E730460393FFF77FFC039B302295E7B2
:102E1000012030E69B4616E7487E0600CDCCCCCCA0
:102E200008B514F025FD002008BD00BF30B4074DE3
:102E3000074C0FCD0FC40FCD0FC40FCD0FC495E8B5
:102E4000070084E8070030BC704700BF587E0600CA
:102E500030080020014B93F83800704730080020FC
:102E6000014B83F83800704730080020F0B5154E4C
:102E7000336883B0F3B1144C144F60684FF0FF32E5
:102E800001A913F0F7FA0028F7D1019B022BF4D126
:102E90004FF0FF31306813F015FA00F0B7F905462E
:102EA000306813F039FA00F0FFF9394643692846D3
:102EB0009847E2E713F094F930600028DBD103B0C3
:102EC000F0BD00BFBC380020A8300020B830002082
:102ED00010B54FF4027082B012F02AFF60B1194AA7
:102EE000194B43604FF40074002144800170136853
:102EF000A3F5007308301360144C154A03214FF4F6
:102F00000073CDE900310346A0600021114813F0A1
:102F1000DFFA206028B113F031FA606050B102B0DE
:102F200010BD38210120FEF7D5FB13F027FA6060B1
:102F30000028F4D13821012002B0BDE81040FEF78E
:102F4000C9BB00BFE4030020ADDEADDEA830002029
:102F5000947E06006D2E0100034B586810B10221CB
:102F600013F07EBA704700BFA830002000B5074AB2
:102F7000074C556883B000230193A847052201A997
:102F8000206813F077FA00F0A3F8F6E7707B0600EC
:102F9000C0380020044B1B6823B1044B0021186883
:102FA00013F05EBA704700BFC4380020C03800205C
:102FB00000B54FF4027083B012F0BAFE034668B158
:102FC0001B491C4A5A604FF4007C0020A3F802C041
:102FD00018700A68A2F5007208330A6002204FF4E4
:102FE0000071CDE90010144A1448002113F070FA62
:102FF000134B1860B0B113F0C1F9124B186060B1F7
:1030000000F022F810B903B05DF804FB092101209B
:1030100003B05DF804EBFEF75DBB38210120FEF73D
:1030200059FBEDE738210120FEF754FBE3E700BF31
:10303000E4030020ADDEADDE9C7E06006D2F0100B6
:10304000C4380020C038002008B513F0C9F8034A7E
:103050000346B0FA80F01360400908BDD0B80020E4
:10306000F8B5194F04460D46386840F6213113F083
:1030700029F918BB154E7388B1885A1C891AC1F3F7
:103080000E018D4215DA002D0ADD611900E05A1C8F
:1030900014F8010B33448C429871C2F30E03F6D13D
:1030A00073800024386813F037F9FFF773FF204668
:1030B000F8BD0921FEF70EFB0924F3E70124FFF711
:1030C00069FF2046F8BD00BFD0B80020C8380020F6
:1030D0002DE9F041344E82B030684FF0FF3113F0EB
:1030E000F1F8E8B9314DDFF8D080AF886C88D8F8B6
:1030F0000430E41BC4F30E0401A898473CB9002433
:10310000306813F009F9204602B0BDE8F081D8F824
:103110000830019840F62131984730B10324EFE799
:103120000124204602B0BDE8F08100F053F90328E5
:1031300024D0402C1E48A0463B4628BF4FF04008F4
:10314000002205EB030C01329CF806C000F801CB0D
:1031500001339045C3F30E03F3DCAB80FFF77AFE37
:1031600098B9144B12489B68414698470028C6D12D
:103170000B21FEF7AFFA0B24AF80C1E70D4B5B6963
:1031800098470028D5D10124BAE7402C21460848A9
:1031900028BF4021FEF7E6F80028B0D01B21002010
:1031A000FEF798FA1B24ABE7D0B80020C8380020FF
:1031B000D4B80020F87B0600907B0600124B10B5B7
:1031C0001C682388628803F1010CA2EB0C02C2F395
:1031D0000A028A4213D99E4679B101444A1E013837
:1031E00001E003F1010C10F8011F23448242197120
:1031F000CCF30A03F5D11FFA83FEA4F800E0BDE882
:103200001040FFF7A9BE00BF14000020F0B5204E0B
:10321000204F32683B681488528819885B8883B0D5
:10322000A41AC91AC4F30A04ADF80420ADF8063094
:10323000C1F30A051CB9B5B9002003B0F0BDFFF712
:1032400009FE0028F7D000F02FF83268056940F237
:10325000FF732146101D01AAA8473368BDF804205A
:103260005A8003B0F0BD00F0B5F80328E4D100F0B7
:103270001BF83A68046940F2FF73101D29460DF1EE
:103280000602A0473B68BDF806205A80D5E700BF7C
:103290000000002014000020014B024A1A60704711
:1032A0006C08002000100100014B1868704700BF37
:1032B00018000020034B044A002818BF034613607F
:1032C000704700BF6C0800201800002000201CF090
:1032D000A9BB00BF08B5FEF727FD0028FBD10520DC
:1032E00013F0A6F9F7E700BF00B5054B83B01868E7
:1032F00001A9FEF7ADFC019803B05DF804FB00BF27
:1033000018C1002000B500231A46234983B00420C9
:10331000FEF762FB214A1060002836D001224FF0F0
:10332000FF31FEF75BFC50BB1D491E48FEF7A0FCB9
:1033300010BB12F02BFB4FF4427012F0F9FC034665
:1033400068B11949194A5A604FF4407C0020A3F82B
:1033500002C018700A68A2F5407208330A6006209D
:103360004FF44071CDE90010114A1248002113F0CA
:10337000AFF803B05DF804FB15F0ACFED9E70E4BD7
:103380000E4A0F483E210EF011FF0E4B0B4A0C481F
:103390003B210EF00BFF00BF3C7F060018C1002050
:1033A00040420F00E9320100E4030020ADDEADDE53
:1033B000287F0600D5320100A07C0600307F060081
:1033C000D47E0600C87E0600014B1870704700BF0F
:1033D0001CC10020014B1878704700BF1CC10020A1
:1033E00010B511F1100418D001F1180012F0A0FC72
:1033F000034690B10A480B4A5C80002119705A605C
:103400000268121B026003F1180440F2031203F178
:103410000800DC609A82198210BD002010BD00BF38
:10342000E4030020ADDEADDEC1B10829A1F1080042
:1034300015D008B5114A11F8083C4168914210D1E5
:10344000022B14D80E49B0F802C051F82320624470
:1034500041F82320BDE8084012F06CBC084612F089
:1034600069BC084B084A0948C9210EF09FFE084B69
:10347000054A0648CA210EF099FE00BFADDEADDE5A
:10348000E4030020447F0600448106005C7F0600C0
:10349000A87F0600012800D0704710B50D4A117CA6
:1034A00082B041B10C4A022310680093694612F0C1
:1034B0002DFE02B010BD034611460848084C137497
:1034C000084B41F8080F0848C2E9004300F058FDD6
:1034D000E8E700BF1C000020D8C300206C81060074
:1034E000B8300020B838002024C10020F0B56A4B65
:1034F0006A4C6B4A6B481860194687B041F8082F30
:103500000127694A5A60201D1F7400F039FD201DF3
:1035100001F098F8204604F51F7650F8701B0EF065
:1035200025FE214604F1400051F8042B03F008FC6D
:103530002268211D304602F02DF92246019652F8EC
:10354000743B0092A6F50F71221D04F178000BF078
:103550000BFF002840F08280206802A931F0D6F8E5
:10356000054600286CD1049813F0F4F8D4F898308C
:10357000002800F0818083F838704C4B2268009658
:10358000A3F1700103F5B8700EF09AFC054600280F
:1035900079D1216846480EF079FD454900952B46C2
:1035A000226801F1CC0004F083FD0546002866D1B5
:1035B0003F49226801F5247005F0CAF80546002845
:1035C00065D12A463B493C4803F0EAFBDDE902436A
:1035D0002A46190E180C61F30702260E46EA032646
:1035E00060F30F22284666F30700260C46EA0346DE
:1035F00066F30F20260A46EA0366304966F3174051
:1036000064F31F60C1F8130005988876040ECC752A
:103610001C0A64F3174263F31F62049BC1F82F3046
:1036200001230B80040C030AC1F80F2022480C76FA
:1036300034224B768D7003F0B9FB284607B0F0BDFD
:103640001F48204B2049C01AC00800042A4640F0F9
:103650000100FEF78FFC284607B0F0BD0546194B68
:1036600017481A49C01AC008000438432A46FEF712
:1036700081FC284607B0F0BD83F838007DE710488C
:10368000104B1349DFE70E480E4B1249DBE70C489D
:103690000C4B1149D7E700BF1C00002020C10020BF
:1036A0006C810600B8300020B838002094C100209A
:1036B00024C100203000002060C1002008C8002084
:1036C0008016070030160700F07F0600C47F060052
:1036D00044800600188006007080060030B51B4B41
:1036E000002483B04FF400622146054618481C8030
:1036F0000EF024FE174B41F608001C7412F018FB64
:10370000034658B11449154A1C704FF4C0505880F4
:103710005A600A68A2F5C05208330A60104C11487A
:103720004FF4C0520321CDE900210F4AA36029467E
:1037300012F0CEFE206008B103B030BD3821012068
:1037400003B0BDE83040FDF7C5BF00BFB83800206A
:10375000B83000201C000020E4030020ADDEADDE08
:10376000C8C30020C1380100A880060070B51A4CFB
:103770001A48251D12F092FF284600F01FFB184B37
:10378000002604F178001E740BF0DCFD04F5F270E5
:103790000EF00AFC0EF08CFC04F1D00004F0CCFC1E
:1037A00004F51F7002F046F804F1400003F0F6FA49
:1037B00032462068314630F0E5FC204650F8701B58
:1037C0000EF0D4FC284600F0F9FA206830F0A6FC90
:1037D000BDE8704000F0A6BA20C10020C8C3002098
:1037E0001C00002038B52F4C04F178000BF0AAFD26
:1037F00004F5F2700EF0D8FB0EF05AFC04F1D00084
:1038000004F09AFC04F51F7002F014F804F1400073
:1038100003F0C4FA00221146206830F0B3FC2046C1
:1038200050F8701B0EF0A2FC201D00F0C7FA2068B3
:1038300030F074FC204630F05DFC054600BB0246CB
:103840001949201D00F07EFA48B9FFF74FFEB0FA83
:1038500080F1BDE838401548490903F0ABBA144A75
:10386000144B15499B1ADB081B04024643F0010068
:10387000FEF780FB29460D48BDE8384003F09ABAB0
:103880000B4B0C480D49C01AC00800042A4640F0F2
:103890000100FEF76FFBBDE838400448002103F04B
:1038A00089BA00BF20C100206081060060C10020ED
:1038B0003016070080160700CC800600AC8006009A
:1038C0002DE9F043434D2B6883B0002B69D0424C67
:1038D000424F0023E36000F0FFF93B68002B5AD011
:1038E0003F4830F007FC0246002849D13D493E4898
:1038F00000F028FA28BBFFF7F9FD3C4E0023337493
:10390000E36883B9DFF80891DFF8088128684FF091
:10391000FF32694612F024FC10B9009B022B1CD028
:10392000E368002BF2D00223E360E368022B05D1A9
:10393000012012F083FEE368022BF9D003B0BDE84A
:10394000F0832B4B2B4902462B48181AC008000461
:1039500040F00100FEF70EFBCFE7337C012BDFD1F7
:103960004FF0FF31386812F0ADFC304600F092F8AD
:10397000002824DC0B3022D0386812F0CDFCCFE7D1
:103980001B4B1D481D49181AC008000440F00100D7
:10399000FEF7F0FAB1E712F023FC386000289FD15F
:1039A000ABE717480522082112F0C8FA2860002862
:1039B0008DD1144B144A1548BF210EF0F7FB4FF47C
:1039C0000062002148460EF0B9FC0023A8F8003040
:1039D000D2E700BFD8C30020C8C30020BC380020F5
:1039E00020C100206081060024C100201C000020AE
:1039F00080160700CC80060030160700AC80060059
:103A0000DCC30020F08006004C8106000081060027
:103A1000B8300020B838002000207047416070475F
:103A200038B50B4D2968044669B1406838B18368E0
:103A30002BB199421A6804D01346002BF9D100F03B
:103A400011FA00232B60034A00231380636038BD02
:103A500040C8002044C80020F8B507460C4D7868DF
:103A600000F0A6FD064690B13446218960686B6877
:103A700098472468002CF8D131467868224600F037
:103A80004BFF786800F094FD06460028ECD1F8BDA5
:103A9000F00300202DE9F04FD0E900B283B0138885
:103AA00000900193002B36D0DFF82491DFF82481B9
:103AB000DFF824A11D46D9F80060002E61D0B8F8C7
:103AC00000407068032C2AD8C4F10402AA42A8BF9F
:103AD0002A462044594697B293440EF021FC72685E
:103AE000D2783C44A4B2131DED1B9C42A8F80040C0
:103AF000ADB236D09AF80030002B2DD0324A334B7D
:103B000010689B686421984700284BD101238AF8EC
:103B10000030002DCFD1019803B0BDE8F08FC278FE
:103B20000432121BAA42A8BF2A4697B220443A4642
:103B300059460EF0F5FB7268D2783C44A4B2131DCE
:103B4000ED1B9C42BB44A8F80040ADB209D0002C4C
:103B5000D0D1002DAFD1DEE71C4B1B485B689847E6
:103B6000D4E7009B3146D868348100F09BFB0023EA
:103B7000C9F80030A8F800308AF80030002D9AD13A
:103B8000C9E7009B3246D86840F2031100F05EF9A5
:103B90000646C9F80000002891D16FF0100003B06C
:103BA000BDE8F08F009BD9F80010D86800F05AF9F2
:103BB00000236FF00A00C9F80030A8F800308AF836
:103BC000003003B0BDE8F08F48C80020907B0600AD
:103BD00040C8002044C800203CC800202DE9F04F18
:103BE000374E348840F2FE750F19AF4283B059DC6E
:103BF00000295CD01588475D324D2F55148801345B
:103C00000FFA83FC012903EA0403138010D0012476
:103C10003788C35C05EB040E01340EF807301388B7
:103C20000133A7B20CEA03039BB2B9421380EFD869
:103C30003388254CDFF894B094F801C0A77894F845
:103C40000380DFF88CA0DFF88C900B444A19338096
:103C500001921C4E08E00FF03DF9BC46474650B3B8
:103C6000019BB34223D0A84616F8015B84F800C03C
:103C70001BF80520677002F00302022A04BFA5F1B9
:103C80002003DDB25146204684F80280E5700FF033
:103C900021F9024649462046002ADCD1052003B01E
:103CA000BDE8F08F0020308003B0BDE8F08F012028
:103CB00003B0BDE8F08F062003B0BDE8F08F00BF71
:103CC000B8380020B83000204CC80020478A0600D1
:103CD000808106007881060008B511F09DFD38B995
:103CE0000C4831F07BFA78B91BF0CEFE30B908BD34
:103CF000094B0A4A0A4819210EF058FA064B074A9E
:103D000007481E210EF052FA034B044A04481B21B7
:103D10000EF04CFA58030020A07C0600E08106005B
:103D20008881060008B51BF0DBFF31F075FABDE8AD
:103D3000084011F019BE00BF40F201120023826258
:103D400083857047002932D0F8B5044617460E46E1
:103D500012F046FA606300282CD0012240F20113D1
:103D600084F82420A3623368266000251B6884F849
:103D70002070052165603046A5602561A5616584D8
:103D8000A5852A469847014640B183890560042BE2
:103D90008560857305D9042383730381E161002065
:103DA000F8BD206803685B6898472946F6E76FF01E
:103DB0000F0070476FF01000F8BD00BF38B5044623
:103DC000806920B303685B6898470023A568A361F6
:103DD0005DB12B4619469A7B2D6812F0020F24D054
:103DE000D3E904209047002DF3D100232569A36077
:103DF0005DB12B4619469A7B2D6812F0020F1CD03C
:103E0000D3E904209047002DF3D100232361E16919
:103E100019B1206803685B6898470023C4E9003340
:103E2000606BBDE8384012F01BBA12F0010FCFD121
:103E3000206803685B689847CAE712F0010FD7D182
:103E4000206803685B689847D2E700BF0068036892
:103E500010B51B681446984718B10023847303609B
:103E6000836010BDC9B138B505460C4623461946D6
:103E70009A7B246812F0020F05D0D3E90420904702
:103E8000002CF3D138BD12F0010FF9D12868036876
:103E90005B689847002CE9D1F4E7704743680BB39F
:103EA0008B4202D106E0994205D01A461B68002BCE
:103EB000F9D17047021D1B681360416800224284DB
:103EC00089B110B40124D1E900131B88C3F3032383
:103ED00004FA03F31A4392B20029F4D15DF8044BBB
:103EE000428470477047704701B370B4D1E90156FE
:103EF0002C88012EC4F303240DD9012301E0B34221
:103F000009D035F83320C2F30322944203F10103B0
:103F1000F5D070BC7047428C45680D60012303FAF0
:103F200004F414434484416070BC7047704700BF80
:103F3000006808B5036800221B68984718B1002381
:103F400003608360837308BDC9B138B505460C466C
:103F5000234619469A7B246812F0020F05D0D3E954
:103F600004209047002CF3D138BD12F0010FF9D195
:103F7000286803685B689847002CE9D1F4E770472C
:103F800010B5846944B90A68034608469961194620
:103F900013689847204610BD6FF0050010BD00BFA4
:103FA00038B504468069002835D003685B689847B7
:103FB0000023A568A3615DB12B4619469A7B2D6845
:103FC00012F0020F17D0D3E904209047002DF3D14F
:103FD00000232569A3605DB12B4619469A7B2D68A5
:103FE00012F0020F0FD0D3E904209047002DF3D137
:103FF0000020206138BD12F0010FDCD12068036879
:104000005B689847D7E712F0010FE4D12068036896
:104010005B689847DFE76FF00A0038BD53684901D5
:1040200070B519705368144600225A70636862892B
:104030009A70638962681B0AD37005464FF0FF319E
:10404000406B12F03FF92B695BB16B691C60686BC8
:104050006C6112F061F9A8690368BDE870409B6863
:1040600018472C61F3E700BF2DE9F04106460F46E3
:10407000406B4FF0FF31154612F024F9B369002B65
:104080002AD0002D36D06C89A97B780B431EDBB279
:104090004FEA172C002835D0022B73D92A46134635
:1040A0001268002AFBD13269002A53D07269F46980
:1040B00015607361002C52D0706B12F02DF9B0694D
:1040C0000368BDE8F0419B68184712F0010F03D167
:1040D000306803685B689847002D00F081802B46AC
:1040E00019469A7B2D6812F0020FEED0D3E9042016
:1040F0009047F1E7F569002D77D00023F361A97BA4
:104100006C89C2E72B4607E019891A68641AA4B2C1
:10411000002AC8D0917B13464A0704F10407F3D55F
:10412000FF2C5A6894BF002101214CEA0111117043
:104130005A6850705A68FF2C28BFFF2494705A6840
:10414000D0701C891A683C1BA4B2002AE2D13269E3
:10415000002AABD1F46935617361002CACD13068B1
:10416000036805211B6822469847014640B18389B0
:104170000460042B846084734BD90423837303810C
:10418000F16199E72B464FF0000E07E019891A6894
:10419000641AA4B2002A86D0917B13464A0704F120
:1041A0000400F3D5FF2C5A6894BF002101214CEA8A
:1041B000011111705A6857705A6882F802E05A6803
:1041C000FF2C28BFFF24D4701C891A68041BA4B2DA
:1041D000002AE1D167E73068036829465B689847A1
:1041E000706BBDE8F04112F097B8306803682A465A
:1041F0001B680521984705460028F1D083890024D3
:10420000042B046084608473E5D9042181730181E7
:104210003BE7306803685B6898472146B0E700BF1A
:10422000F8B505460E46406B4FF0FF31174612F0C9
:1042300049F8AB69002B30D0EC69B4B10023EB61D5
:1042400063681F7122896389686B0132013322819F
:10425000638112F061F8C6F30B012246284641F44F
:104260008041BDE8F840FFF7FFBE2868036822469A
:104270001B6805219847044678B182890023042AE7
:1042800003608360837303D9042383730381D7E7B7
:104290002868036821465B689847686BBDE8F8406A
:1042A00012F03AB80A89032A2DE9F84F0C46054660
:1042B00003D94B681978BF2917D9234619469A7B29
:1042C000246812F0020F06D0D3E904209047002C96
:1042D000F3D1BDE8F88F12F0010FF8D12868036818
:1042E0005B689847002CE8D1F3E7B2F5827FE4D20F
:1042F000A27B42F00402A273197848093CD0421E06
:10430000022A00F2A980A94E5A7806EA012616432D
:10431000011FCAB2012A40F2CA80DA7862810328FA
:1043200000F2CD8040F201100021A862A98593F827
:104330000080AF68C8F30018002F00F0A3807868F1
:1043400001784B0900F02D8103F1FF3CBCF1020F15
:1043500000F22581DFF854C243780CEA01210B43B7
:10436000B34240F083807989EB680A4400211C60E5
:10437000EC607A81618187E0D8789A788B4EAF685B
:1043800042EA0022628106EA012667B13B461946ED
:104390009A7B3F6812F0020F54D0D3E90420904773
:1043A000002FF3D1636895F8282085F829201B7821
:1043B000AC60C3F3001383F0010385F82830EC6090
:1043C00095F820804FEA56394C46B8F1000F00F0BE
:1043D00098806B6823B3C6F3032E06F03F0C596830
:1043E0000A88C2F30322964513D19F688FB108460D
:1043F000002206E0B24500F0A580974200F10800D7
:1044000007D031F832A00AF03F0BE34502F1010278
:10441000F0D91B68002BE2D1013C022C40F2B280A3
:10442000AC685CB1234619469A7B246812F0020FEF
:1044300035D0D3E904209047002CF3D10023AB60A2
:10444000BDE8F88F12F0010FAAD1286803685B68F5
:104450009847002F9AD1A5E7460359E712F0010FBC
:1044600003D1286803685B6898475FB13B461946EB
:104470009A7B3F6812F0020FF0D0D3E904209047F6
:10448000002FF3D1C5E90244236823B11A461B6803
:10449000002BFBD1EA60B8F1000F91D019E712F0C0
:1044A000010FBED1286803685B689847B9E7DF78D9
:1044B0009A78032842EA072262817FF633AFC9B2B5
:1044C00001293FF67DAF40F201120023AF68AA62D6
:1044D000AB855FB13B4619469A7B3F6812F0020FED
:1044E00048D0D3E904209047002FF3D195F82080DD
:1044F0004FEA5639C5E902444C46B8F1000F7FF443
:1045000068AF09F1FF33022B3FF663AF95F8243013
:10451000FF2B3BD06B68002B7FF45DAFA9F1020944
:10452000B9F1010F7FF67CAF6B8CC6F30322D34049
:1045300013F0010F314614BF082207222846FFF767
:104540006FFE6DE74768DB68AA6831462846B847C2
:1045500000283FF465AF95F82030002B7FF460AF62
:10456000013C022C3FF65CAF314602222846FFF7A1
:1045700057FE55E712F0010FABD1286803685B685E
:104580009847A6E7B8F1000FC8D049E7B6F5005F35
:10459000C0D0314601222846FFF742FE40E75B03C8
:1045A000DEE6024B03EA0123DAE600BF00EFFFFF7D
:1045B00038B504464FF0FF31406B11F083FE25699A
:1045C000002323612A463AB113682BB1997B49072E
:1045D00007D5002123611160606B11F09DFE284614
:1045E00038BD1A46EFE700BF90F82400704700BFBF
:1045F00030B589B090F820200290002304460520B1
:10460000CDE90333CDE905338DF81E30ADF81C003C
:10461000B2B994F82430FF2B12D08B420D460FD044
:1046200084F8241001220DF1070102A88DF807502B
:1046300000F0DEF9039A204646F20101FFF714FD6F
:1046400009B030BD2DE9F04190F8207088B0002409
:104650004FF00508CDE90344CDE9054402908DF8FB
:104660001E40ADF81C8017B108B0BDE8F0810122F2
:10467000054680F824200DF1070102A88DF80720D7
:1046800000F0B6F9686B039E4FF0FF3111F01AFE8F
:10469000AB69002B42D0002E4CD07389B27B3046E0
:1046A0000127002406E0028901689B1A9BB2D9B158
:1046B0008A7B0846520703F1040CF4D54268FF2BAD
:1046C0008CBF7021602111704268577042689470ED
:1046D000FF2B426828BFFF23D37003890168ACEB2E
:1046E00003039BB20029E3D12B69002B44D06B69F3
:1046F0001E60EC696861002C40D0686B11F00CFE04
:10470000A86903689B68984708B0BDE8F08112F07B
:10471000010F03D1286803685B68984746B33346A6
:1047200019469A7B366812F0020FF0D0D3E90420C4
:104730009047F3E7EE691EB1EF61B27B7389AEE794
:104740002868036832461B6841469847064678B198
:1047500083890460042B8460847304D90422234673
:10476000827302819BE72868036831465B6898473B
:10477000686B11F0D1FD77E72E61BAE7286803680E
:1047800005211B6822469847014640B18389046091
:10479000042B8460847304D9042383730381E96147
:1047A000ABE7286803685B6898472146F7E700BFD6
:1047B0002DE9F04190F8207088B000244FF00508F2
:1047C000CDE90344CDE9054402908DF81E40ADF8D3
:1047D0001C8017B108B0BDE8F08105460B460122E8
:1047E0000DF1070102A88DF8073000F001F9686BA0
:1047F000039E4FF0FF3111F065FDAB69002B42D0F5
:10480000002E4CD07389B27B30463127002406E05D
:10481000028901689B1A9BB2D9B18A7B084652076C
:1048200003F1040CF4D54268FF2B8CBF7B216B2174
:1048300011704268577042689470FF2B426828BF1D
:10484000FF23D37003890168ACEB03039BB20029FB
:10485000E3D12B69002B44D06B691E60EC69686161
:10486000002C40D0686B11F057FDA86903689B6865
:10487000984708B0BDE8F08112F0010F03D1286815
:1048800003685B68984746B3334619469A7B366897
:1048900012F0020FF0D0D3E904209047F3E7EE695D
:1048A0001EB1EF61B27B7389AEE7286803683246B8
:1048B0001B6841469847064678B183890460042BFB
:1048C0008460847304D904222346827302819BE7A7
:1048D0002868036831465B689847686B11F01CFDD7
:1048E00078E72E61BAE72868036805211B6822462D
:1048F0009847014640B183890460042B8460847327
:1049000004D9042383730381E961ABE72868036852
:104910005B6898472146F7E770B50546164661B1D2
:104920000C46234619469A7B246812F0020F06D0E3
:10493000D3E904209047002CF3D156B970BD12F092
:10494000010FF8D1286803685B689847002CE8D10C
:10495000F3E72C695CB1234619469A7B246812F070
:10496000020F07D0D3E904209047002CF3D1002395
:104970002B6170BD12F0010FECD1286803685B68F1
:104980009847E7E738B50446C06810B9656815B1BF
:1049900038BDC0B238BDA18AA27D2068042938BFC5
:1049A0000421FFF753FA014680B18389032B07D90D
:1049B000837B042213438B738A602846616038BD71
:1049C0002068FFF74FFA6560022038BD6060022062
:1049D00038BD00BFF0B40C4606460FCC35463769EB
:1049E0000FC594E8030085E803003761F0BC704709
:1049F0002DE9F0470546002A3CD03E4F8946164631
:104A00004FF0000A4FF00408002D58D0E868002845
:104A100038D16B68002B3AD05B89A868A7FB0324C8
:104A2000E409C4EB04241C1B31D0838901898B4227
:104A300047D0C4F1FF020C461C1B944228BF144609
:104A4000002C53D0D5F804C0D0F804A0BCF80A203C
:104A5000B44228BF3446A3B21A440B44ACF80A202F
:104A60008A4403814946224650460DF059FC361BC4
:104A7000A144C9D1286918B103780133037000201B
:104A8000BDE8F087C0F10004ECDBBDE8F087AA7D4B
:104A9000A98A2868FFF7DAF940B38389032B21D963
:104AA000827BC0F8088042F0040282736A68BAB15F
:104AB000AA6810600421A8600C46FF22BCE7042409
:104AC000D0E7AA7DA98A2868FFF7C0F970B1AA6863
:104AD000018983891060C4F1FF02A8600C46ABE72E
:104AE0006860E7E701462868FFF7BCF90220E86044
:104AF000C6E700BF81808080F0B5074683B00E46D0
:104B000000230DF1070101223D468DF80730FFF724
:104B10006FFF0FCD34460FC4BB681A895B6895E8F8
:104B20000300013A134484E80300336103B0F0BD8D
:104B30002DE9F8430689D0F80CE0B64551D09146EE
:104B4000002A4ED005460F46B44608464FF00008EE
:104B50002C68002C33D023899E4237D36C602468A4
:104B60002C60AEEB0303EB60A5F80880002C31D07D
:104B70002389A17B11F004011FBFEA6804215218A8
:104B8000EA600E468C469A1B4A4528BF4A4663682F
:104B90009444A5F808C01944A9EB020984180DF043
:104BA000BFFBB5F808C0D5F80CE0E64566460AD06C
:104BB000B9F1000F07D020462C68002CCBD17645E8
:104BC000B446C5D10446E01BBDE8F883002ED0D022
:104BD0003146D8E71FFA88F69E467645B446B7D1E7
:104BE000F0E70020BDE8F883F0B40389C5689D4272
:104BF00031D019B30E46002704683CB32289934292
:104C00001FD3446024680460AD1AC5600781E4B115
:104C10002289A47B14F004041EBF04350424C5605B
:104C20002346121BB24228BF324613449BB2AB420A
:104C30000381A6EB02060BD0002EDDD10846F0BCA6
:104C40007047002BE5D01C46EBE72346AB42D3D19F
:104C5000881BF0BC70470020F1E700BF002850D04F
:104C6000F8B50446C06800282ED11746002A5DD04A
:104C70000D4600295AD0636843B35B89324EA16860
:104C8000A6FB0326F609C6EB06269E1B1ED08B89C3
:104C9000B1F808C0634536D0C6F1FF066046181A61
:104CA000B04228BF3046002848D066684A687489F8
:104CB000854228BF0546ABB21C44624463443A6057
:104CC000284674810B81F8BD4042F8BDA18AA27DBF
:104CD0002068FFF7BBF8014600282FD08389032BFB
:104CE00029D9827B42F004028273626804208860C2
:104CF000D2B1A26811604FF0040CA1606046FF269B
:104D0000CDE704207047A18AA27D2068FFF79EF8B6
:104D1000014698B1B0F808C0A26883891060C6F156
:104D2000FF06A0606046BAE76160E4E70423E36041
:104D30006FF00300F8BD2068FFF794F80223E360EA
:104D40006FF00100F8BD00BF8180808060B159B173
:104D5000436853B130B45A890D8984682A4421606C
:104D6000816030BC5A8170477047C0E901117047BB
:104D7000002832D0002930D0002A2ED0F0B40568A7
:104D80000346C5B106892C89A64217D3C0685D6069
:104D90002D681D60001B0024D8601C815DB12C892A
:104DA000AF7B17F004071FBFD8680427C019D8606D
:104DB0003E46384606E00020F0BC7047002EEFD09B
:104DC00030463746201A88426C6828BF0846064499
:104DD000274417601E81F0BC70470020704700BF59
:104DE0002DE9F041B0F808C0C768674582B01DD012
:104DF0001546884601220DF107011E460446FFF7BD
:104E000097FE9DF807202A70B2420FD82189E368E7
:104E10005B1A9A420AD841462046FFF789FE2B7852
:104E2000834203D1002002B0BDE8F081032002B02C
:104E3000BDE8F08170B5FF2A82B0054603D9022390
:104E4000C36002B070BD14460E4601220DF1070189
:104E50008DF80740FFF7CCFD224631462846FFF784
:104E6000C7FD02B070BD00BFF0B50389C6689E42A1
:104E700083B00D4619D0571E0DF1070101220446DB
:104E8000FFF756FE9DF80760B7420ED32289E3680C
:104E90009B1A9E4209D8204632462946FFF748FE13
:104EA000864202D12E44002001E02E46032000233A
:104EB00033702B78002B08BF032003B0F0BD00BF78
:104EC00070B50D4682B006460846002114460DF026
:104ED000D7F900B1441BFF2C03D90223F36002B0C1
:104EE00070BD0DF10701012230468DF80740FFF734
:104EF0007FFD224629463046FFF77AFD02B070BD9D
:104F0000F0B5C36805895B1B012B83B056D90D46EC
:104F100016460DF1070101220446FFF709FE9DF830
:104F200007302B702033DBB2022B30D82389E168A5
:104F3000CA1A012A42D9994229D022684FF0000C9E
:104F40000AB317899F423CD8626012682260C91B6D
:104F5000E160A4F808C0C2B11789937B13F0040381
:104F60001EBF04310423E1601846FB1A012B94BFD5
:104F7000C318431C9BB28B42238108D0874206D1C1
:104F80002268002ADDD1E16822899142FBD10DF12E
:104F9000070101222046FFF7CBFD9DF80720327064
:104FA0002189E3685B1A9A4208D82B782033DBB258
:104FB000022B8CBF0020042003B0F0BD032003B0FF
:104FC000F0BD2089E1680028C7D00346CDE700BFC7
:104FD0002DE9F041164652898EB00024042A049629
:104FE000059605460F460792ADF818401ED998461B
:104FF000042208A904A8FFF79BFDD8F80040089AEE
:105000001CB93BE02468002C38D0A3689342F9D146
:105010002369D8F80800D3E90053009332462346A9
:1050200039466C69A0470EB0BDE8F081CDE908545F
:10503000CDE90A4440F20312ADF834200DF10F011E
:1050400008A803230C948DF8364001228DF80F3008
:10505000FFF7CEFC0DF10F0108A801228DF80F40DB
:10506000FFF7C6FCC7F30B012846099A41F48041BB
:10507000FEF7FAFF20460EB0BDE8F081002440F2B2
:105080000310ADF83400CDE90854CDE90A440DF120
:105090000F01112301220C948DF8364008A8D5E7A2
:1050A0002DE9F04F54898DB04FF000090292039220
:1050B000059480460F469A46ADF81090002C7CD19E
:1050C0001C684FF0FF36002C00F0DC804FF0000928
:1050D000246809F10109002CFAD1013600F084801E
:1050E000FF26DAF80C30002B00F0C1809D7B002DEC
:1050F00000F0B98003F10B02154402E0954200F084
:10510000B28012F8014FB442F8D106AD0DF1040B94
:105110000023594640F20314012228460B93CDE99F
:105120000733CDE909338DF80430ADF82C40CDF8C4
:105130001880FFF75DFC5946284601228DF804903F
:10514000FFF756FCDAF80040B9F1000F29D0FF2E26
:1051500067D0237BB34203D02468237BB342FBD1C7
:105160002369A068D3E90021D3699847A368019314
:105170008246042259462846FFF73AFC237B8DF8E5
:105180000430012259462846FFF732FC01225946D5
:1051900028468DF804A0FFF72BFCB9F1010924681B
:1051A000D7D1C7F30B01079A41F480414046FEF77F
:1051B0005BFF00200DB0BDE8F08F012206A902A818
:1051C000FFF7B6FCDAF800409DF81860002C72D0AA
:1051D000FF2E3FF47BAF237B2468B34208BF09F165
:1051E0000109002CF7D17CE706AD0DF1040B40F26C
:1051F00003135946012228460B94CDE90684CDE9D4
:1052000008448DF804400A94ADF82C30FFF7F0FB09
:105210005946284601228DF80490FFF7E9FBDAF899
:1052200000402369A068D3E90021D3699847A368A7
:1052300001930646042259462846FFF7D9FB237BF3
:105240008DF80430012259462846FFF7D1FB012290
:10525000594628468DF80460FFF7CAFBB9F10109E9
:105260002468DED19DE79B68002B7FF43FAFDAF81E
:105270001030002B7FF449AF394640460522FEF737
:10528000CFFF96E701A940F2031306A801220B9471
:10529000CDE90684CDE908448DF804400A94ADF8C0
:1052A0002C30FFF7A5FB01A906A801228DF80440C8
:1052B000FFF79EFB75E7A14613E700BF2DE9F04F0E
:1052C000046889B0002C40D080460E460546002771
:1052D0004FF00A0903E025462C68002C35D02369DD
:1052E000B342F8D123682B60D8F808B0A3680397BD
:1052F00004220DEB02014FF0010A02A8CDE9013BA7
:10530000CDE904770697ADF81C908DF81E70FFF775
:105310006FFB524601A902A88DF804A0FFF768FBB5
:10532000524601A902A88DF80470FFF761FB5846A8
:10533000039A46F20211FEF797FE63682046002B9F
:10534000CAD098472C68002CC9D109B0BDE8F08FAD
:105350002DE9F041558986B00024032D0292039275
:105360000595ADF810401BD904221E460746884615
:1053700002A80DEB0201FFF7DBFB3468019A14B9B8
:1053800015E024689CB1A5689542FAD12369B068FC
:10539000D3E900134C684146A04706B0BDE8F08150
:1053A0000322FEF73DFF204606B0BDE8F0813846F7
:1053B00041461122FEF734FF0020EEE72DE9F041CF
:1053C000558986B00024032D029203920595ADF80D
:1053D00010401CD904221E4680460F4602A80DEB41
:1053E0000201FFF7A5FB3468019A14B91FE0246895
:1053F000ECB1A5689542FAD1236919688C686CB143
:105400005B68B0683946A04706B0BDE8F08103226A
:10541000FEF706FF204606B0BDE8F081404639465B
:105420000222FEF7FDFE204606B0BDE8F0814046B0
:1054300039461122FEF7F4FE0020E5E72DE9F041A0
:10544000558986B00024032D029203920595ADF88C
:10545000104026D904221E4680460F4602A80DEBB6
:105460000201FFF765FB3468019A14B920E0246853
:10547000F4B1A5689542FAD123694BB11968CC689B
:1054800034B15B68B0683946A04706B0BDE8F0812A
:10549000404639460222FEF7C3FE002006B0BDE8B2
:1054A000F0810322FEF7BCFE204606B0BDE8F08185
:1054B000404639461122FEF7B3FE0020E5E700BF63
:1054C0002DE9F04155898CB00024032D02920392FE
:1054D0000595ADF810401AD91E46042280460F46A5
:1054E00002A806A9FFF724FB3468069A14B915E050
:1054F00024689CB1A5689542FAD12369B068D3E9C4
:1055000000138C693946A0470CB0BDE8F081032236
:10551000FEF786FE20460CB0BDE8F08140F2031095
:10552000002411230DF107010122ADF82C0006A87B
:105530008DF80730CDE90684CDE908440A948DF84A
:105540002E40FFF755FA0DF10701012206A88DF84C
:105550000740FFF74DFAC7F30B014046079A41F4A5
:105560008041FEF781FD2046CEE700BF2DE9F041E6
:1055700055898CB00024032D029203920595ADF855
:1055800010401AD91E46042280460F4602A806A9DA
:10559000FFF7CEFA3468069A14B915E024689CB176
:1055A000A5689542FAD12369B068D3E900130C6A63
:1055B0003946A0470CB0BDE8F0810322FEF730FE6B
:1055C00020460CB0BDE8F08140F203100024112306
:1055D0000DF107010122ADF82C0006A88DF8073067
:1055E000CDE90684CDE908440A948DF82E40FFF7F2
:1055F000FFF90DF10701012206A88DF80740FFF71A
:10560000F7F9C7F30B014046079A41F48041FEF7D2
:105610002BFD2046CEE700BF2DE9F0471E7D88B068
:105620001F4600245389049205920793ADF8184051
:10563000002E40D1042B37D904228246884604A884
:1056400003A9FFF775FA03A904A80122DDF80C905D
:10565000FFF76EFAFE689DF80C30CEB1B57BA5B1B0
:1056600006F10B02154401E0AA420ED012F8014FD8
:105670009C42F9D1D6E900420092B86824684A46B3
:105680004146A04708B0BDE8F087B668002EE5D1D6
:105690003E69002EEED1504641460522FEF7C0FD80
:1056A000304608B0BDE8F0870322FEF7B9FD30466A
:1056B00008B0BDE8F0870122FEF7B2FD204608B031
:1056C000BDE8F0872DE9F041164652898EB00024DE
:1056D000042A0496059605460F460792ADF8184031
:1056E0001ED99846042208A904A8FFF721FAD8F881
:1056F0000040089A1CB93BE02468002C38D0A3680D
:105700009342F9D12369D8F80800D3E900530093F4
:10571000224633462C693946A0470EB0BDE8F081D9
:10572000CDE90854CDE90A4440F20312ADF8342023
:105730000DF10F0108A803230C948DF836400122C7
:105740008DF80F30FFF754F90DF10F0108A8012271
:105750008DF80F40FFF74CF9C7F30B012846099A63
:1057600041F48041FEF780FC20460EB0BDE8F08198
:10577000002440F20310ADF83400CDE90854CDE91F
:105780000A440DF10F01112301220C948DF83640CB
:1057900008A8D5E730B5044683B00E4D019100232B
:1057A000C4E901212360E36008462361636129465F
:1057B000EC60FEF799FB0198EC6105F11001FEF732
:1057C00093FB0198EC6205F1200103B0BDE8304085
:1057D000FEF78ABB44000020F0B589B04FF00A0CF8
:1057E000054600240E46174601A902A80422ADF87A
:1057F0001CC0CDE90165CDE903441E46CDE9054451
:105800008DF81E40FFF7F4F801A902A801228DF8D7
:105810000470FFF7EDF801A902A801228DF80460D9
:10582000FFF7E6F8039A284646F20211FEF71CFC41
:1058300009B0F0BD2DE9F04FC5688BB00646002DCC
:105840005AD04FF0000A57463468AB68F360002C1A
:1058500040D0B1464FF00A0B04E0A146D9F8004011
:10586000002C37D02369AB42F7D12368C9F8003048
:10587000B36804934FF00108042203A9019304A81C
:10588000A3680393CDE9067705970897ADF824B090
:105890008DF826A0FFF7ACF8424603A904A88DF8BE
:1058A0000C80FFF7A5F8424603A904A88DF80CA0C8
:1058B000FFF79EF8019B059A184646F20211FEF783
:1058C000D3FB63682046002BC8D09847D9F8004026
:1058D000002CC7D1082DA5F1080017D015F8082C09
:1058E0000D4C418854F822300B4444F8223010F01B
:1058F00021FAF568002DA7D1002333607360B360EF
:10590000F360336173610BB0BDE8F08F10F012FAF1
:10591000F568002D98D1EFE7E4030020006810B18E
:1059200083688B42FAD17047F0B40468059E07463D
:1059300014B907E024682CB1A568A942FAD1022065
:10594000F0BC70473C6914B12068834208D0FC6801
:105950001CB9F4E7A468002CF1D02568AB42F9D15A
:1059600000200123F060B06130603273F376049A56
:105970003B683360C6E90121C6E904403E60F0BCE3
:10598000704700BF10B5046914B123689A4207D06C
:10599000C46814B918E0A468B4B123689A42FAD173
:1059A00003681BB910E018461B686BB19A688A42FD
:1059B000F9D11A69A242F6D1D3E9001201600AB105
:1059C00018469047002010BD6FF00A0010BD00BFC0
:1059D00030B4046814B90DE024685CB1A568A9422C
:1059E000FAD121690968914207D103B11C600020F6
:1059F00030BC7047112030BC7047022030BC70476B
:105A0000036883B1FF294FF0000007D01A7B1B68A1
:105A10008A4208BF0130002BF8D170471B68013063
:105A2000002BFBD170471846704700BF022B64D88B
:105A30002DE9F8450F46C1681E4682469046F9B1E9
:105A40000B68BB4215D08A7BBAB101F10B0422442A
:105A500007E0022E03D198F80130AB4209D0A242F0
:105A60000BD014F8015F002EF9D098F80030AB424B
:105A7000EFD16FF00700BDE8F88589680029DFD114
:105A80003B68002B36D07B68002B33D07B698BB30F
:105A9000FB697BB3BB696BB33B695BB33B6A4BB3DD
:105AA000182010F045F9054608B30024144A154B98
:105AB00084601021C46004614461047041804360CB
:105AC0001368DAF80C00103B136041463246286137
:105AD000AE75AF6005F114000CF022FC05F108066C
:105AE000089BEB602046CAF80C60BDE8F8856FF0B3
:105AF0001000C0E76FF00A00BDE76FF00A007047C2
:105B0000E4030020ADDEADDEF8B5056985BB0B68AA
:105B10000C4653B34B6843B34B6933B3CB6923B3E0
:105B20008B6913B30B6903B30B6AF3B106461820F4
:105B3000174610F0FDF80346A0B10F490F4A9D60CB
:105B40001020DD6058801D615D611D705A600A681B
:105B500003F1080C103A0A602846C3E90247C6F868
:105B600010C0F8BD6FF01000F8BD6FF00A00F8BD6E
:105B70006FF00700F8BD00BFE4030020ADDEADDE2E
:105B800038B5C468FCB100F10C0503E004F1080568
:105B9000A468C4B123688B42F8D12146FFF78EFB7D
:105BA000A3682B60082CA4F1080008D014F8081C86
:105BB000054A448852F82130234442F82130BDE898
:105BC000384010F0B7B838BDE40300200169E9B1EE
:105BD00038B50446FFF772FB23698BB1082BA3F19C
:105BE000080008D013F8081C094A458852F82130EB
:105BF0002B4442F8213010F09DF80023236138BD7A
:105C0000184610F097F80023236138BD704700BF95
:105C1000E403002001757047002908BF022834BF43
:105C200001200020704700BF002908BF052805D0CB
:105C3000002906BF09280120002070470120704775
:105C4000F0B51D46DB6AAA6891B000240E33CDE999
:105C50000B44CDE90D4407460A900E46ADF83C30A2
:105C60008DF83E408DF80C408DF80D408DF80E40BB
:105C70008DF80F4012B90EE0D26862B19468002C22
:105C8000FAD0136900930DF10E020DF10F030DF11F
:105C90000D0103A8A0470224002304A901220AA899
:105CA0008DF81030FEF7A4FE04A922460AA8ADF82C
:105CB0001040FEF79DFE9DF80D109DF80C30224619
:105CC00043EA01330AA804A9ADF81030FEF790FEAC
:105CD0009DF80F109DF80E30224643EA01330AA8C2
:105CE00004A9ADF81030FEF783FE41F2010322460D
:105CF00004A90AA8ADF81030FEF77AFE04A90AA894
:105D0000FEF7FAFEA96A69B1EA6A0AA8FEF770FE10
:105D1000EB6A089A00280CBF1846002000F0FF0329
:105D200002B1137004A90AA8FEF754FEC6F30B01D2
:105D300038460B9A41F48041FEF796F9002011B0E5
:105D4000F0BD00BF70B588B00024054669465868AC
:105D5000029540F20313CDE90344CDE905448DF8E3
:105D60001E40ADF81C302EF0BFFCC8B9034601A997
:105D7000012202A88DF80430FEF73AFEBDF800308B
:105D8000ADF8043001A902A80222FEF731FE284630
:105D9000039A44F62731FEF767F9002008B070BD7A
:105DA00001A90226012202A88DF80460FEF720FE58
:105DB000324601A902A8ADF80440E6E730B589B043
:105DC000002440F203130546ADF81C30CDE902046F
:105DD000CDE9044406948DF81E402EF0B1FC031B5F
:105DE00018BF01230DF10701012202A88DF8073029
:105DF000FEF7FEFD2846039A44F62631FEF734F9F5
:105E0000204609B030BD00BF022900D070470068AD
:105E1000FF21FEF7EDBB00BFF0B5548987B0002528
:105E2000029203920594ADF8105034B31F4601223C
:105E30000DF1070102A8FEF77BFEBC689DF8076024
:105E40007CB12268304642B121699047E4688CB148
:105E5000226801253046002AF6D1E468002CF0D1F2
:105E600045B9386800224FF40051FEF7D9F9386877
:105E7000FEF7E8FB002007B0F0BD0322FEF7D0F9E3
:105E8000002007B0F0BD00BF2DE9F0418EB0002525
:105E9000804601220F4602A808A940F203161C46BC
:105EA000CDE90355CDE90555CDF808808DF81E5094
:105EB0008DF82050ADF81C60FEF79AFD08A902A8E5
:105EC00001228DF82050FEF793FD059B23B9049A1B
:105ED00013895568013B1D44A4687CB100266368A2
:105EE00001A902A83BB122690196984790B9019A8D
:105EF0002B7813442B70E468002CF0D1C7F30B010E
:105F00004046039A41F48041FEF7AEF800200EB0FF
:105F1000BDE8F08103994046FDF7A4FF40F203106D
:105F200002230DF10301ADF83400012208A88DF819
:105F30000330CDE90886CDE90A660C968DF8366007
:105F4000FEF756FD0DF1030108A801228DF803604C
:105F5000FEF74EFDC7F30B014046099A41F480411C
:105F6000FEF782F800200EB0BDE8F081F0B58BB0EE
:105F70000646586804960023CDE90533CDE907337A
:105F800040F203148DF82630002200236946CDE943
:105F90000023ADF824402EF07BFB00283CD10446C2
:105FA00002A9012204A88DF80840FEF721FD4FF454
:105FB0007A720023DDE9000151F098F927460D4679
:105FC0000346010A63F3070741EA05611A0C61F30E
:105FD0000F2742EA05421B0E62F3174743EA0523E7
:105FE00063F31F674FEA152C2B0C02A904A80822A3
:105FF0008DF80C508DF80F4002978DF80DC08DF87C
:106000000E30FEF7F5FC3046059A44F20801FEF723
:106010002BF800200BB0F0BD0223012202A904A836
:106020008DF80830EDE700BF70B58CB00024054650
:106030000DF107025868069540F2031302A9CDE955
:106040000744CDE909448DF82E40ADF82C302EF0F0
:1060500045FB60BB034604A9012206A88DF8103059
:10606000FEF7C6FC9DF807308DF8103004A9012218
:1060700006A8FEF7BDFCDDE902431A0A1E0C8DF8E6
:1060800014301B0E8DF8152004A906A808228DF8DF
:1060900016608DF817300494FEF7AAFC2846079A7C
:1060A00044F63631FDF7E0FF00200CB070BD02234E
:1060B00004A9012206A88DF81030FEF799FC04A966
:1060C000012206A88DF81040FEF792FCCDE90444A9
:1060D00004A906A80822DFE72DE9F04FADF5057DFC
:1060E00003464FF4947200213AA808AC1D46019370
:1060F0000CF024F99022002116A80CF01FF90023BF
:1061000040F2031216A93AA8C4E90133C4E90333E3
:106110002560A282A3752EF017FB88B101220EA97B
:1061200020468DF83820FEF763FC0198626844F63B
:106130002531FDF799FF00200DF5057DBDE8F08FB5
:1061400005460EA9012220468DF83850FEF750FC76
:10615000DDE93A122B460E0A46EA026661F30703AE
:1061600062F30705080C170A40EA024066F30F23A2
:10617000090E160C67F30F2541EA022160F317435D
:1061800066F31745120E61F31F6362F31F65012664
:106190000EA908222046CDE90E35FEF729FC0EA9EE
:1061A000324620468DF83860FEF722FC092332463D
:1061B0000EA920468DF83830FEF71AFC15AB0DF10C
:1061C00058093AAD009305F1080CBCE80F000EAE7B
:1061D0000FC69CE80F0086E80F0099E80F000DF14C
:1061E000100C8CE80F0080460CF07EFED5E904B65A
:1061F000024641462046D5E9067A95F82480FEF706
:106200005FFE08224FEA162E4FEA164C330E0DEBB6
:10621000020120468DF80DE08DF80EC08DF80F308C
:106220008DF80C60CDF808B0FEF7E2FB042202A95D
:106230002046CDF808A0FEF7DBFB042202A9204689
:106240000297FEF7D5FB4FF00403012202A9204676
:106250008DF80830FEF7CCFB05AE56F8043B0293F0
:10626000042202A92046FEF7C3FBA642F5D114AED4
:1062700016F8013B8DF80830012202A92046FEF7EE
:10628000B7FB009BB342F3D1012202A9204620357F
:106290008DF80880FEF7ACFB82ABAB4209F1100928
:1062A00091D142E72DE9F0438DB0002440F2031371
:1062B000064602A8ADF82C30CDE90664CDE90844C5
:1062C0000A948DF82E400FF019FE01A9012206A8AC
:1062D0008DF80440FEF78CFB029B019301A9042278
:1062E00006A8FEF785FB039B019301A9042206A8DB
:1062F000FEF77EFB049B019301A9042206A8FEF78A
:1063000077FB059B019301A9042206A8FEF770FB09
:106310000FF07AFD054680B901A906A801228DF883
:106320000450FEF765FB3046079A44F62331FDF72B
:106330009BFE00200DB0BDE8F08300EB40095FEA52
:10634000C90954D009F108000FF0F2FC00284ED022
:106350002B4B2C4FA0F80290047043603B6800F177
:1063600008082946A3EB090340463B600FF04EFDA9
:106370000122054601A906A88DF80450FEF738FB56
:10638000002D24DD05EB450508EBC50544462146F7
:106390000C2206A8FEF794FD0422E36801930DEB9E
:1063A000020106A8FEF724FB0422236901930DEBEA
:1063B000020106A8FEF71CFB04226369019318344E
:1063C0000DEB020106A8FEF713FBA542DFD1B8F1E1
:1063D000080FA8F1080007D018F8082C418857F8D2
:1063E00022300B4447F822300FF0A4FC9BE7002337
:1063F00001A906A801228DF80430FEF7F9FA92E708
:10640000ADDEADDEE40300202DE9F04FADB0002598
:1064100054890A920B9240F20312CDE90F55CDE94F
:10642000115501900D9402911E460E90ADF830501A
:106430008DF84E50ADF84C20FEF7D6F8FF2800F04E
:10644000B681022800F0E081BDF830300D9A9A4202
:1064500000F0C58114A90AA80122FEF769FB9DF886
:1064600050B0BBF1000F00F0CF804FF0FF33DFF8EA
:1064700038940393069300274FF00008BDF83020AE
:106480000D9B9B1A012B40F2EB816022494614A818
:106490000BF046FF012208A90AA8FEF749FB9DF868
:1064A0002040012208A90AA8FEF742FB9DF82030EF
:1064B000002C4BD0012C49D0A02C00F07581A12CD0
:1064C00000F08281A22C00F09381A32C00F0938134
:1064D000A42C00F09381A52C00F09381A62C00F051
:1064E0009581A72C00F09581A82C00F09581A92C0E
:1064F00000F0958104230122154614A90EA88DF8F9
:106500005030FEF775FA2A4614A90EA88DF850509F
:10651000FEF76EFA2A4614A90EA88DF85040FEF731
:1065200067FA2A460EA814A905238DF85030FEF705
:106530005FFA029B01980F9AC3F30B0141F480416B
:10654000FDF792FD00202DB0BDE8F08FA2462CAAE9
:1065500002EBCA024FEACA0A12F85E1C994240F0E6
:10656000118112F85F2C002A40F00E81013B072BAD
:106570000CD8DFE803F06F600B570B0B0B040822FD
:1065800008A90AA8FEF7D4FADDE908782CAB9A44EA
:106590005AF85C3C2BB1384641469847002800F039
:1065A0000181012C00F0F28004F16003DBB2092BC1
:1065B00015D8A4F1A003092B11D8DFE813F0CC0003
:1065C000C500D3007B00A90010009400B80055005E
:1065D0000A00706839462DF069FE002873D1013534
:1065E000EBB25B45FFF44AAF069B002B039BC0F266
:1065F0004981002BC0F23D81A0241A46069970689B
:106600002DF030FE00285ED10024012214A90EA82E
:106610008DF85040FEF7ECF90EA814A901228DF870
:10662000504084E7042208A90AA8FEF781FA4FF037
:106630000008089FAAE7022208A90AA8FEF778FA2C
:106640009DF821309DF8207047EA0327BFB24FF034
:1066500000089BE7012208A90AA8FEF769FA4FF093
:1066600000089DF8207091E7CDE904780797B046BF
:106670004FF0000A26463C46012303FA0AF3234260
:1066800014BF012100215FFA8AF00AF1010A2DF0FE
:106690003DFF002840F0C680BAF1090FECD1464614
:1066A000079B73620135EBB25B45DDE90478FFF4CB
:1066B000E5AE99E71FFA87FA706851462DF026FE7D
:1066C000002800F08480063040F0AD8013230122C2
:1066D00014A90EA88DF85030FEF78AF90EA814A957
:1066E0000023012221E757EA080314BF4FF0010AF3
:1066F0004FF0000A706851462DF028FE0028E2D1C4
:106700000135EBB25B4586F811A0FFF4B7AE6BE73D
:1067100070683A4643462DF009FE0028D3D1013572
:10672000EBB25B45C6E90678FFF4A8AE5CE770689B
:1067300039462DF043FD0028C5D10135EBB25B454C
:106740003762FFF49BAE4FE70135EBB25B45039731
:10675000FFF494AE48E70135EBB25B450697FFF4D2
:106760008DAE41E71FFA87FA706851462DF0C0FDE3
:106770000028A8D10135EBB25B45A6F812A0FFF4C2
:106780007DAE31E70323B6E60923B4E657EA0803F2
:1067900014BF0121002170682DF082FD00283FF414
:1067A0001EAF90E70523A6E64FF0020ACFE60123CD
:1067B00014A901220EA88DF85030FEF719F914A97A
:1067C0000EA800230122B0E64FF0030ABFE6013510
:1067D000EBB25B45A6F814A0FFF450AE04E7DDE988
:1067E00001010322FDF71CFD00202DB0BDE8F08F54
:1067F0004FF0040AABE64FF0050AA8E64FF0060A90
:10680000A5E64FF0070AA2E61323D1E74FF0080AE6
:106810009DE64FF0090A9AE64FF00A0A97E64FF014
:106820000B0A94E6344601221546052614A90EA843
:106830008DF85060FEF7DCF82A4614A90EA88DF8F2
:106840005050FEF7D5F82A4614A90EA88DF85040EE
:10685000FEF7CEF82A460EA814A98DF8506066E619
:10686000DDE901010622FDF7DBFC00202DB0BDE8CB
:10687000F08F706808A914AA2DF006FD90B9149B3A
:106880000393B9E6002BFFF6BFAE706808A914AAFF
:106890002DF0FAFC20B9089B039A0693A124ADE6DB
:1068A000A12410E7A0240EE7408206002DE9F04F56
:1068B00099B05589089200240646099240F20310C7
:1068C0004FF0FF32CDE90B56CDE90D44CDE90F4431
:1068D000CDE91344CDE91544CDE904441296894627
:1068E000ADF828408DF846408DF85E40ADF8440084
:1068F000ADF85C000392002D3FD0012206A908A844
:106900009846FEF715F9BDF828200B9B9DF81870E6
:106910009B1A9F4231D8012206A90CA88DF8184075
:10692000FEF766F80CA8012206A98DF81870FEF78C
:106930005FF8002F00F08181A2464FF0010BCDF8E7
:106940000490012206A908A8FEF7F2F89DF8185055
